:020000040800F2
:1000000078AE0020A101000883230008E921000840
:1000100081230008D7110008192A000800000000F9
:100020000000000000000000000000001126000891
:10003000D9110008000000006B24000813260008F6
:10004000BB010008BB010008BB010008BB010008A0
:10005000BB010008BB010008BB010008BB01000890
:10006000BB010008BB010008BB010008BB01000880
:10007000BB010008BB010008BB010008BB01000870
:10008000BB010008BB010008BB010008BB01000860
:10009000BB010008BB010008BB010008BB01000850
:1000A000BB010008BB010008BB010008BB01000840
:1000B000FD2600080000000000000000BB01000851
:1000C000BB0100080000000000000000BB010008A8
:1000D00000000000BB010008BB0100080000000098
:1000E000BB010008BB010008000000000000000088
:1000F0000000000000000000000000000000000000
:10010000000000000000000000000000BB0100082B
:100110000000000000000000BB010008BB01000857
:10012000BB010008BB010008BB010008BB010008BF
:10013000BB010008000000000000000000000000FB
:10014000BB010008BB010008BB010008BB0100089F
:10015000BB010008BB010008BB010008BB0100088F
:10016000BB010008BB010008BB0100080000000043
:10017000BB010008BB0100080000000000000000F7
:10018000BB010008BB010008BB010008DFF80CD070
:1001900000F006FE004800479930000878AE0020C5
:1001A0000648804706480047FEE7FEE7FEE7FEE711
:1001B000FEE7FEE7FEE7FEE7FEE7FEE7B126000802
:1001C0008D0100082DE9F05F0546002092469B4610
:1001D00088460646814640241BE02846414647465D
:1001E000224600F05CFC53465A46C01A914110D397
:1001F00011461846224600F043FC2D1A67EB010811
:100200004F4622460120002100F03AFC17EB00097E
:100210004E41201EA4F10104DFDC484631462A4647
:10022000434600F000B830BCBDE8C09F40EA01037F
:100230009B0703D009E008C9121F08C0042AFAD29C
:1002400003E011F8013B00F8013B521EF9D2704760
:10025000D2B201E000F8012B491EFBD27047002208
:10026000F6E710B513460A4604461946FFF7F0FFB5
:10027000204610BD30B504460020034600E05B1C5C
:10028000934203D2E05CCD5C401BF8D030BD00004F
:100290000FB400B589B00BA800906A4603480A99CC
:1002A00000F02EFC09B05DF814FB000000000020F7
:1002B0002DE9FF5F1D464FF0FF3BD5E90146914612
:1002C0005F464FF00008A9697F1C01988847296A9A
:1002D000824688470028F6D1BAF1FF3F0CD024F4BB
:1002E000C064002E19DD600614D5BAF12B0F09D0B9
:1002F000BAF12D0F0ED103E0584604B000F07EB8DD
:1003000044F48064A9697F1C01988847761E824660
:10031000002E02DDBAF1300F03D0B9F1000F26D064
:1003200032E0A969761E44F400747F1C0198884766
:100330008246002E05DDBAF1780F06D0BAF1580FCB
:1003400003D0B9F1000F10D01EE0B9F1000F02D0B8
:10035000B9F1100F18D1A969761E24F400747F1C1E
:10036000019888478246102002E0082000E00A2019
:10037000814609E008FB0908A969761E44F4007467
:100380007F1C019888478246002E05DD494650466D
:1003900000F0A7FB0028EDDAE96901988847A0057D
:1003A00002D46FF00100A8E7E00725D1600613D55D
:1003B000600502D5C8F1000000E0404629680A1D2A
:1003C0002A600968220501D5087015E0220701D5C9
:1003D000088011E008600FE02868011D29600068AE
:1003E000210502D580F8008006E0210702D5A0F89B
:1003F000008001E0C0F8008038467EE730BCBDE8F0
:10040000C09F00002DE9FF4F087883B09946FF2870
:1004100005D0491C2D2804D00024002008E000202D
:100420000BE00124F9E700EB800003EB4000491CDE
:100430000B78FF2BF7D104B14042002302931478CC
:1004400019461D462D2C01D02B2C04D1521C2D2CCD
:1004500013D000240294AA461478FF2C0FD00A254A
:10046000A3FB057801FB05814FF0000C03FB0C1189
:10047000521CE3194AEB0101EEE70124EAE781444B
:1004800053EA010002D019F5C87F06DA039800216B
:10049000C0E9001107B000F065B90025AE4E2F4647
:1004A000DFF8B882184600F03EFCCDE90001B9F152
:1004B000000002DAC9F1000400E004460023A74A64
:1004C0001AEB030B42EB045A12E0E00707D02A466E
:1004D00033463846414600F0B1FB074688462A4677
:1004E00033461046194600F0A9FB05460E46641037
:1004F000002CEAD1DDE90001B9F1000F5A4653465C
:1005000006DA00F0E1F93A46434600F0DDF905E08D
:1005100000F094FB3A46434600F090FB029A0AB181
:1005200081F00041039AC2E90001B3E72DE9FF4FD2
:100530001F468DB0D7E901464FF0FF382E204546C3
:100540004FF000090B90B9696D1C0E988847396A05
:10055000824688470028F6D1BAF1FF3F0AD024F43A
:10056000D064002E11DDBAF12B0F08D0BAF12D0F97
:100570000BD102E0404611B08DE744F48064B969C4
:100580006D1C0E9888478246761E6946600501D527
:100590002D2000E02B208DF8000001F1010B0DF162
:1005A000200809E0B9696D1C0E98884782460F98AB
:1005B00044F40074761E0560002E02DDBAF1300F9F
:1005C000F0D00B998A453ED144F0800406E00F99A3
:1005D000681CA9F1010944F400740860B9696D1C34
:1005E000761E0E98884782463028F0D02BE00B9973
:1005F0008A4505D1200603D444F08004761E18E015
:10060000504603F0D8F908B30DF11302761EAAF193
:10061000300044F40074934506D20BF8010B200619
:1006200007D5A9F1010003E0200602D409F1010079
:100630008146A00502D50F99681C0860B9696D1C38
:100640000E9888478246002ED1DC53E0002E51DD03
:10065000BAF1650F02D0BAF1450F4BD1A00549D5CB
:10066000B9696D1C24F44074761E0E988847824642
:10067000002E0CDD2B2804D0BAF12D0F07D144F445
:100680008074B9696D1C0E9888478246761EE00515
:1006900001D52D2100E02B2108F8011BCDF82C807D
:1006A00021E00DF12901761E44F4007488450CD236
:1006B000AAF1300010F0FF0088F8000002D10B9979
:1006C000884509D908F1010806E0E00501D524486C
:1006D00001E042F20F708146B9696D1C0E9888479F
:1006E00082460F980560002E04DD504603F063F942
:1006F0000028D6D1F9690E988847FF208BF80000B2
:1007000088F800000020069007904B466A4608A92A
:1007100006A8FFF777FEA00502D46FF001002AE7D4
:1007200014F0240F0AD0E00714D1DDE9061238686E
:10073000031D3B600068C0E900120BE0DDE9060123
:1007400000F06CF90146E00704D13868021D3A60F8
:100750000068016028460EE7000014400000F03FEA
:10076000F1D8FFFF30BCBDE8C08F2DE9FE4F8046B9
:1007700081EA0300C00F0C46009021F0004123F0F5
:100780000045B8EB0200A94105D2404621469046FB
:100790001C460B46024623F00040104347D0270D6D
:1007A000C7F30A00C3F30A510290401A019040288F
:1007B0006BDAC3F3130040F4801B0098924620B11B
:1007C0000023D2EB030A63EB0B0B01985946C0F1EF
:1007D0004002504600F054F906460D465046594630
:1007E000019A00F06CF910EB08006141002487EADF
:1007F000115284EAE7731A4340D0009A62B3019A17
:10080000012A4FEA075215DC001B61EB02014FF091
:10081000004202EA0752CDE90042001C41F5801176
:1008200032462B4600F0BCF903B000F045B8404614
:100830002146F9E7001B61EB0201001C41F5801322
:1008400000185B412018A2F5001747EB030140EAAE
:10085000D570B6196D4111E06D084FEA360645EACC
:10086000C0754FEA0752001B61EB0201001C41F505
:10087000801149084FEA30000019514132462B4699
:1008800003B000F01CB800F07CB9009801224000D1
:100890000023D0EB020263EBE073009821464FEA9D
:1008A000E074B8EB000061EB0401E9E783F000437A
:1008B0005BE781F0004158E730BCBDE8C08F30BC39
:1008C000BDE8C04FFFF7DFBF2DE9F04D81EA03041B
:1008D00004F0004B21F0004514464FF0000A23F0CD
:1008E000004150EA050220D054EA01021DD0C5F3B0
:1008F0000A570246C5F31303C1F31300C1F30A56A6
:1009000040F4801543F48013A7EB0608101BD6466D
:1009100008F2FD3873EB050002D308F1010801E08D
:1009200092185B41B8F1000F03DA00200146BDE8E0
:10093000F08D00204FF48011064684460EE0171B10
:1009400073EB050705D3121B63EB050306434CEA63
:10095000010C49084FEA300092185B4150EA010748
:10096000EDD152EA030012D082EA040083EA0501C5
:10097000084305D0101BAB4106D20122002306E03C
:1009800000224FF0004302E06FF0010253101AEB17
:1009900006004CEB085110EB0A0041EB0B01BDE8DF
:1009A000F04D00F0EEB830B5041E71F1000404DB28
:1009B0004FF00044404264EB0101141E73F1000447
:1009C00005DB1C464FF00043524263EB0403801AE0
:1009D000994101D3012030BD002030BD0EB540F259
:1009E000334102910021CDE900110A460B4600F087
:1009F000D7F803B000BD00F0004230F000400AD04C
:100A0000C10D01F56071C0F3160042EA0151C20840
:100A100040071143704700200146704701F0004332
:100A200030B421F0004150EA010206D00A0DA2F5CF
:100A30006072C1F31301002A02DC30BC0020704751
:100A4000440F44EAC104C100E01830BC00EBC250BE
:100A500000F060B830B50B4601460020202201248A
:100A600009E021FA02F59D4205D303FA02F5491B7C
:100A700004FA02F52844151EA2F10102F1DC30BD92
:100A8000202A04DB203A00FA02F10020704791404E
:100A9000C2F1200320FA03F3194390407047202A43
:100AA00004DB203A21FA02F00021704721FA02F318
:100AB000D040C2F120029140084319467047202AD5
:100AC00006DBCB17203A41FA02F043EAE07306E076
:100AD00041FA02F3D040C2F1200291400843194686
:100AE00070473A2800D2303820F02002412A01D342
:100AF000A2F13700884201D34FF0FF307047000069
:100B0000024B9361024BD36100F078B9192E0008B3
:100B1000E10D00080029A8BF7047401C490008BF2C
:100B200020F00100704710B4B0FA80FC00FA0CF01D
:100B300050EA010404BF10BC704749B1CCF1200455
:100B400021FA04F411FA0CF118BF012121430843E2
:100B5000A3EB0C01CB1D4FEA00614FEA102042BF0E
:100B6000002010BC704700EBC35010440029A4BF04
:100B700010BC7047401C490008BF20F0010010BCA9
:100B8000704710B5141E73F1000408DA401C41F1DF
:100B9000000192185B411A4301D120F0010010BD01
:100BA0002DE9F04D92469B4611B1B1FA81F202E077
:100BB000B0FA80F220329046FFF762FF04460F46FB
:100BC00040EA0A0041EA0B0153465A46084313D053
:100BD000114653EA010019D0C8F140025046FFF710
:100BE0005EFF05460E46504659464246FFF748FF0F
:100BF000084305D0012004E020463946BDE8F08DC9
:100C00000020054346EAE0762C4337430A98630503
:100C1000E40AA0EB08000022FD0A44EA47540A3027
:100C200002D500200146E9E7010510196941DDE917
:100C3000084500196941BDE8F04DA2E72DE9FE4FD6
:100C400081EA030404F0004421F0004100944FF0D5
:100C5000000B23F0004350EA01045ED052EA030483
:100C60005BD0C3F30A54C1F30A552C44A4F2F33405
:100C70000194A0FB0254C1F3130141F48011C3F3AA
:100C8000130343F4801301FB024400FB034E840A68
:100C9000970A44EA815447EA8357A4FB0768029500
:100CA0008D0A05FB07854FEA932C04FB0C5427059E
:100CB000029D4FEA065847EA1637B5EB08056EEB7A
:100CC000070C870E920E47EA811742EA8312A7FBB0
:100CD0000201B6EB0B0164EB00042B0D43EA0C336D
:100CE0005E1844EB1C50DA465146E7FB0201C5F39F
:100CF00013044FEA0B3343EA14534FEA0432019CC6
:100D000043EA0603A4F10C040294009CCDE900B46C
:100D1000FFF746FF03B000F003B800200146F9E7F3
:100D200030BCBDE8C08F0EB540F2334202920022C3
:100D3000CDE900221346FFF733FF03B000BDC1F336
:100D40000A52C1F3130140F2FF3341F480119A4279
:100D500002DA00200146704740F233439A42A2F281
:100D6000334202DC5242FFF79ABEFFF789BE000011
:100D700030B5041E71F1000404DB4FF00044404222
:100D800064EB0101141E73F1000405DB1C464FF0F7
:100D90000043524263EB0403994208BF904230BDC6
:100DA000064C074D06E0E06840F0010394E80700B8
:100DB00098471034AC42F6D3FFF7ECF9B865000859
:100DC000D8650008094910B508784C1C18B1401EB8
:100DD0000870205C10BD00210720ABBE207010BD44
:100DE00002490878421C0A70704700001000002079
:100DF000026811441378016018467047D1600449B5
:100E000051610449116200211161114600F00AB8D4
:100E1000F10D0008190E0008C0B24FF4F05100F0B7
:100E20009BB900002DE9F34F8BB04FF0000801F1A2
:100E30000C000C464FF0010B46460DF1080A0190DC
:100E40006269012101989047051E2DD0252D2CD0D7
:100E5000216A8847C0B16269012101989047216ADF
:100E600088470028F7D1411E62690198904700E049
:100E7000761CA1690B988847216A88470028F7D11A
:100E8000E1690B988847DBE7A1690B98884707461B
:100E9000A84201D1761CD3E7E1690B9888477F1CF3
:100EA00002D1B8F1000F6FD046E1002762693D46DC
:100EB0003946019890472A2804D162690121019896
:100EC00090470125DFF884926269012101989047DB
:100ED000A0F130010A290AD24F45E5DC07EB870172
:100EE00000EB4107303FDFD445F01005ECE7E906A1
:100EF00001D46FF000476C280AD04C2814D0682821
:100F000015D06A280DD074281CD07A281AD01DE07C
:100F100062690121019890476C2802D045F00405D0
:100F200014E045F002050DE045F020050AE0626995
:100F3000012101989047682802D045F0080505E096
:100F400045F400656269012101989047C4E90157A1
:100F500065283DD019DC58287AD00CDC452837D0DC
:100F600004DC252826D0412831D131E046282FD075
:100F700047282CD12CE05B2877D0612828D0632823
:100F80007CD0642823D15AE0D0E06F2848D008DC18
:100F900066281DD067281BD0692821D06E2816D15D
:100FA00027E0702845D0732868D0752847D0782866
:100FB0000DD14DE0A1690B988847054625283FF4DF
:100FC00069AFE1690B9888476D1C3FF46AAFB3E0E5
:100FD00023466A466FF001000B99FFF7A7FA9EE0DF
:100FE00045F040006060A80723464FF0000236D469
:100FF0003EE0E8077FF447AF2068011D21600068EC
:10100000290501D506701BE7290701D5068017E7DA
:10101000A90703D5F117C0E9006111E706600FE7E2
:1010200045F040006060A80723464FF0080216D440
:101030001EE040F60E0125EA0100606016E045F072
:1010400040006060A80723464FF00A0207D40FE073
:1010500045F040006060A80708D5234610226FF0D5
:1010600001000B99AFF3008059E007E023461022FE
:101070006FF001000B99FFF71BF950E04FF00009EA
:101080004F464B46632802D05B2806D040E0E80676
:1010900001D40120A06001273AE062690121019892
:1010A00090475E2805D14FF00109626949460198D1
:1010B0009047216939B900210A46534643F8212057
:1010C000491C0829FADBB0B3216969B9C11700EBE3
:1010D000D16253110AEB830122F01F02821A012010
:1010E0000B68904003430B606269012101989047AF
:1010F0005D28E8D1B9F1000F09D00020514651F820
:101100002020D24341F82020401C0828F7DB02AB06
:10111000224600976FF001000B99AFF30080002882
:101120000CDA401C08D1BBF1000F05D04FF0FF30A6
:101130000DB000F00DB8FFE74046F9E7E90701D12F
:1011400008F1010806444FF0000B79E6CCCCCC0C3A
:1011500030BCBDE8C08F00007F2801D9002208E024
:10116000064A02EB5002C007127800D1120902F0C1
:101170000F0201209040084070470000F85E000810
:1011800070B58C1810F8015B15F0070301D110F849
:10119000013B2A1106D110F8012B03E010F8016B76
:1011A00001F8016B5B1EF9D12B0705D40023521EF9
:1011B0000DD401F8013BFAE710F8013BCB1A921C61
:1011C00003E013F8015B01F8015B521EF9D5A1425F
:1011D000D8D3002070BDFEE77047EFF3108072B6E1
:1011E000FEE70000B0B51F233BB1013B03F01F0435
:1011F00021FA04F4E407F7D001E04FF0FF334FEA9F
:10120000F204032C13D8DFE804F004020D100F2BB6
:101210000DD800684161816821F018011143816097
:101220000020B0BD072BF4D901E0062BF1D9012035
:10123000B0BD000010B588B10446407F20B9002041
:101240002077204600F02EF802206077207938B110
:10125000D4E902122046FFF7C5FF40B1012010BDBE
:1012600020680F494161816821F01801816060792F
:1012700008B1206901E04FF0FF302168D4E905236F
:101280000861886820F0600010438860886820F05A
:1012900080001843886001206077002010BD00BFE7
:1012A000B71DC10481B000680749884209D10748C9
:1012B000016841F480510160006800F480500090A2
:1012C000009801B0704700BF003002404810024053
:1012D000B0B5044600F0D2F805468648611C007897
:1012E00018BF044400F0CAF8401BA042FAD3B0BDB6
:1012F0002DE9FC4F5A4A07234FF0000B4FF0010A2B
:101300004FF00F094FF0000E904208BF02230093E8
:1013100000250C6834FA05F208BF00F0ABB80AFAF1
:1013200005F214EA020800F095804F68122F5AD88F
:101330000AFA07F414F0061F55D0032303FA0EF43B
:101340008368CE686FEA040CA34306FA0EF63343B3
:1013500083603B094668AB4026EA02021A434260BA
:101360006A00C3688E6803EA0C0396403343C36087
:1013700047F01003122B10D16FF003040BF01C0385
:1013800004EA550709FA03F607443C6AB4430E69B8
:1013900006FA03F323433B624F68036807F0030434
:1013A00004FA02F203EA0C031A430260FA0051D570
:1013B0002E4B1A6842F001021A601A68294B02F09B
:1013C0000102A3F57E740192019AAA0854F82270D2
:1013D000B0F1904F0ED0264BDDF800C0984208BF08
:1013E0004FF0010C08E0032202FA0EF26FEA020C41
:1013F0007246B6E74FF0000C0BF00C0309FA03F647
:101400000CFA03F327EA0606164F334344F822305A
:101410003A684C6842EA0803E60358BF22EA080328
:101420003B60A6037A6842EA080358BF22EA080331
:101430007B60E602BA680C4E42EA080358BF22EA13
:101440000803BB60A402326842EA080358BF22EADC
:10145000080333600BF1040B0EF1020E013558E75F
:1014600000080048000401400C04014060100240E4
:10147000000400481CBCBDE8E08F0000054800687F
:10148000704700BF1B48034900780A681044086091
:10149000704700BF7496002080B5032000F078F8F4
:1014A000002000F007F808B1012080BD00F024F80A
:1014B000002080BD70B50F4E04463078B0B14FF4B7
:1014C0007A71B1FBF0F053490968B1FBF0F000F01C
:1014D00059FD01250F2C0AD848B94FF0FF3021469D
:1014E0000022002500F02EF8746000E00125284657
:1014F00070BD00BF9C00002082B00A48816841F0A6
:1015000001018160816801F0010101910199016887
:1015100041F080510160006800F080500090009818
:1015200002B0704758100240002808D400F01F0194
:101530000122400902FA01F1014A42F820107047E5
:1015400000E100E0F0B5184B4FF0FF361C68C4F323
:101550000224E51E84F0070438BF002506FA05F7CB
:10156000BA43042C28BF042406FA04F4A14300F073
:101570000F04A940043C11432344044A09010C33DD
:10158000B0F1FF3FC8BF83181970F0BD00E400E060
:1015900005494FF6FF030A681A4060F30A22034820
:1015A00010430860704700BF0CED00E00000FA0532
:1015B00010B5A749B0F5007F0A6802F4C0621ED1D9
:1015C000B2F5007F23D00868012262F34A2032225C
:1015D0000860F448006850430F4AB0FBF2F0002264
:1015E00001304C69013842F10003640501D5002B3C
:1015F000F7D14869400544BF032010BD07E0B2F5AC
:10160000806F04D00868022262F34A20086000203C
:1016100010BD00BFCC05002040420F008C48006880
:1016200000F4C060704700BF2DE9F84304464078DD
:10163000864F00071BD5E06B68B1B0F5400F11D0A5
:10164000B0F5000F40F0EC80386840F4803038602E
:101650004FF4000006E0201D002100F007FF814646
:1016600038B9E06BF96F21F440010843F8674FF097
:101670000009A078800750D5F86C10F0805808D188
:10168000F86C40F08050F864F86C00F080500090E6
:1016900000986F4D286840F480702860FFF7EEFED8
:1016A00006462868C00507D4FFF7E8FE801B02281D
:1016B000F7D94FF0030929E0B9F1000F26D1D7F887
:1016C000840010F4407017D0216D884211D0D7F8F3
:1016D0008400D7F8841041F4803120F44070C7F8BA
:1016E0008410D7F8841021F48031C7F88410C7F82B
:1016F0008400C00740F09780206DD7F884104FF029
:10170000000921F440710843C7F88400B8F1000FC4
:1017100003D1F86C20F08050F8642068C10705D030
:10172000216AFA6F22F003021143F967810705D598
:10173000616AFA6F22F00C021143F967810605D540
:10174000A16AFA6F22F440621143F967810505D559
:10175000616BFA6F22F440221143F967410505D508
:10176000A16BFA6F22F440121143F967410605D5C7
:10177000E16AFA6F22F440521143F967C10505D5B9
:10178000216BFA6F22F440321143F967810413D5BB
:10179000216C00F024FE07D0B1F1006F0CD1396844
:1017A00041F48011396007E0201D012100F05EFE48
:1017B000002818BF81462068410313D5616C00F0F2
:1017C0000EFE07D0B1F1006F0CD1396841F48011E1
:1017D000396007E0201D012100F048FE002818BFF5
:1017E00081462068410410D5A16CFA6F22F0405266
:1017F0000A43B1F1805FFA6707D1201D022100F092
:1018000035FE002818BF81462068000405D5E06C2D
:10181000F96F21F080410843F8674846BDE8F88336
:101820004FF0010925E7FFF729FE064641F288350A
:101830004FF00309D7F8840080073FF55DAFFFF74D
:101840001DFE801BA842F5D960E700BF0C100240C6
:10185000007000402DE9F843002800F08580444BDB
:1018600004468846186800F0070088420AD21868C3
:1018700020F0070040EA08001860186800F0070030
:10188000404571D12068484EC10736D0606840B1EC
:1018900002280BD003280ED156F8081C89010ED45B
:1018A00062E056F8081C890709D45DE056F8081C68
:1018B000890304D458E056F8081C490554D531680A
:1018C0009946354621F00301084300F0B9FD06466C
:1018D00041F2883729466068296801F00C01B1EBB4
:1018E000800F07D0FFF7CAFD801BB842F2D9032052
:1018F000BDE8F88320682E464B46810705D5A168D0
:10190000326822F0F00211433160196801F00701DA
:1019100041450AD9196821F0070141EA0801196017
:10192000196801F0070141451ED1410705D5E1685D
:10193000326822F4E06211433160000706D5206965
:10194000316821F4605141EAC000306000F030F8A5
:101950003168084A00F082FD1249086006480068B4
:10196000BDE8F843FFF7A6BD0120BDE8F88300BF3E
:1019700000200240485F0008A000002009480A49F2
:101980000A4A00680968C1F3022100F05CBD00BF8B
:1019900004480549054A00680968C1F3C22100F0FE
:1019A00052BD00BFCC05002008100240585F00085F
:1019B00010B523498A68C86812F00C0205D00C2AB9
:1019C0001FD100F0030001281BD108681F4B00073E
:1019D00047BF08680009D1F89400000A002A00F007
:1019E0000F0053F82030184618BF00200C2A21D1D0
:1019F000C86800F00300022809D0032808BF124B72
:101A000006E0042A17D0082A17D10F4810BD0D4B45
:101A1000C868CA68C9680224C2F30622C0F302106B
:101A2000C1F341615A43013004EB4101B2FBF0F0D4
:101A3000B0FBF1F010BD034810BD00200023D5E736
:101A4000001002400024F40000127A00605F0008D9
:101A50002DE9F843002800F00582DB4E0446B0680B
:101A600000F00C08F06800F003072078C0061BD4D3
:101A70002078C00757D0B8F1080F4DD0B8F10C0F3F
:101A800008BF032F48D06068B0F5803F07D0B0F59D
:101A9000A02F40F0EA81306840F480203060306848
:101AA00040F480303060E9E1B8F1000F18D0B8F1AF
:101AB0000C0F08BF012F13D03068A169002900F076
:101AC000508140F0010000F0BBFC05463068800703
:101AD00000F15681FFF7D2FC00F0A5FCF6D93DE2FB
:101AE0003068800703D5A069002800F0BB81206A18
:101AF000316809075ABFD6F894100909316801F016
:101B0000F001884240F2F78000F040FD002840F0EC
:101B1000A98100F03EFC02E13068800303D56068D3
:101B2000002800F09F812078800728D5B8F1040FA5
:101B300017D0B8F10C0F08BF022F12D03068E1683F
:101B4000002900F0A98140F4807000F079FC05467E
:101B5000306840050CD4FFF791FC00F064FCF7D925
:101B6000FCE13068400503D5E068002800F07A8188
:101B70002069716821F0FE4141EA006070602078C0
:101B8000000755D42078400769D42078800600F1FA
:101B90009A80A06A002800F0E381022840F0F380D8
:101BA000E16AF06800F003028A4240F00F81216B85
:101BB0006FF00F0202EB011100F070028A4240F058
:101BC0000581616B00F4FE42B2EB012F40F0FE8014
:101BD000A16B00F07842B2EBC16F40F0F780E16B8F
:101BE000E54A02EB015100F4C0026FF314018A428E
:101BF00040F0EC80216C4FF07E4200F0C06002EBC0
:101C0000016101F07E41884240F0E080306880014F
:101C100000F1A68100F0D9FB04463068800100F194
:101C20009F81FFF72BFC011B03200229F5D995E1C9
:101C3000D6F894006169002900F0818040F001002D
:101C4000C6F89400FFF71AFC0546D6F89400800702
:101C500098D4FFF713FC401B0228F6D9FAE0B06DC8
:101C600010F0805908D1B06D40F08050B065B06D73
:101C700000F0805000900098BE4F3868C0050FD427
:101C8000386840F480703860FFF7F8FB0546386824
:101C9000C00505D4FFF7F2FB00F0C5FBF7D95DE105
:101CA000A068012808D0052840F0B880D6F8900038
:101CB00040F00400C6F89000D6F8900040F0010013
:101CC000C6F89000B8E0D6F89800616A002900F0E4
:101CD000938040F00100C6F89800FFF7CFFB05465F
:101CE000D6F8980080073FF554AFFFF7C7FB00F028
:101CF0009AFBF5D932E1316841F008013160316871
:101D000021F0F00101433160B8F1000FE169726820
:101D100022F47F4242EA0121716000F09E80FFF7C9
:101D200047FEB168904A00F099FB904908609048DE
:101D30000068FFF7BFFB002840F0108198E620F014
:101D40000100C6F89400FFF799FB0546D6F8940009
:101D500080077FF517AFFFF791FB00F064FBF5D923
:101D6000FCE020F0010000F06BFB054630688007C6
:101D70007FF57EAEFFF782FB00F055FBF6D9EDE074
:101D800000F007FB74E6B8F10C0F6BD0306820F060
:101D9000807030603068000103D4F06820F00300E8
:101DA000F060F06876490840F060FFF767FB044692
:101DB0003068800140F1D480FFF760FB011B0320F5
:101DC0000329F5D3CAE000BF00100240B8F10C0FA0
:101DD00048D03068400145D4306820F0807000F071
:101DE0002FFB05463068800140F18C80FFF746FBF1
:101DF00000F019FBF6D9B1E020F00100C6F8980018
:101E0000FFF73CFB0546D6F8980080077FF5C1AE8A
:101E1000FFF734FB00F007FBF5D99FE0D6F89010F0
:101E2000002821F00101C6F89010D6F8901021F09A
:101E30000401C6F890103ED0FFF720FB054641F2A2
:101E40008837D6F89000800745D4FFF717FB401B72
:101E5000B842F6D90320BDE8F88300F097FB0028CC
:101E60003FF45DAF0120BDE8F883316821F4803193
:101E70003160316821F480213160A8B3FFF7FEFAA8
:101E80000546306880033FF54EAEFFF7F7FA411B79
:101E900003206429F5D961E020F4807000F0D0FAC5
:101EA0000546306840057FF56AAEFFF7E7FA00F0B7
:101EB000BAFAF6D952E0FFF7E1FA054641F288375F
:101EC000D6F89000800706D5FFF7D8FA411B03200B
:101ED000B942F5D942E0B9F1000F7FF456AEB06DCA
:101EE00020F08050B06550E6FFF7C8FA054630682C
:101EF00080037FF518AEFFF7C1FA411B0320642968
:101F0000F5D92BE004F12C036FF00F051B4F0FCB1D
:101F100005EB0111F5683D4028430843E16B40EAB9
:101F20000220154A02EB01514FF07E426FF314017B
:101F30000843216C40EAC36002EB016101F07E417D
:101F40000843F06000F041FA04463068800107D48D
:101F5000FFF794FA011B03200229F6D9BDE8F883A4
:101F60000020BDE8F88300BF485F0008CC050020D2
:101F7000A0000020007000400000E0FF8C809D0168
:101F8000FFFFEEFE411E0020B0EB116F1CBF0120D1
:101F90007047044AF023516003490B700721906099
:101FA0001160704710E000E023ED00E010B540B193
:101FB0000446406F08B900F03AFA00F0FCF9012835
:101FC00001D1012010BD606A08B100F036FA00F0BE
:101FD00023FA21F02A01816000F03AFABDE81040AE
:101FE00000F0E1BBF0B587B00068E349884236D124
:101FF000B048032500260227C16841F40031C160C2
:10200000C16801F4003102910299016841F00101B7
:102010000160006800F0010001900720059504961A
:102020000397069004200290019802AC4FF0904074
:102030002146FFF75DF94FF400402146CDE90555F3
:10204000CDE9037602904FF09040FFF751F926203A
:1020500000210022FFF776FA2620FFF765FA07B085
:10206000F0BD00BF2DE9F8430546806F202807D159
:102070000E4641B1174632B195F87000012805D1DE
:102080000220BDE8F8830120BDE8F88300201C464B
:10209000E867012085F870002220A867FFF7EEF9B5
:1020A000A5F85A708046A5F85870A86870B1B0F1CC
:1020B000805F0FD0B0F5805F10D1286940B940F241
:1020C000FF17B1460026A5F85C700EE0286938B904
:1020D000FF2706E0286918B13F2702E0002700E04B
:1020E0007F27A5F85C704FF00009002085F870008C
:1020F000B5F85A00B8B12846202100224346009482
:1021000000F04CFCA0B92868808C384016B106F865
:10211000010B02E029F8020B0026B5F85A0001383D
:10212000A5F85A00E4E72020A8670020BDE8F8835E
:102130000320BDE8F8832DE9F8430446406F2028CA
:1021400007D10E4641B1174632B194F8700001280C
:1021500005D10220BDE8F8830120BDE8F8834FF0E7
:10216000000901201D46C4F87C9084F870002120ED
:102170006067FFF783F9A4F852708046A4F85070A6
:10218000A068B0F5805F01D1206908B1002701E0A7
:102190003746002684F87090B4F85200B8B1204653
:1021A000802100F034F9B8B926B116F8010B216886
:1021B000088506E037F8021B206800266FF35F21D0
:1021C0000185B4F852000138A4F85200E4E7204633
:1021D000402100F01CF910B10320BDE8F883202055
:1021E00060670020BDE8F883FEE7000010B5184ADC
:1021F0000368904210D0B0F1804F03D14C6823F0B7
:1022000070032343B0F1804F0AD0124CA04207D094
:10221000114CA04204D007E04C6823F07003234324
:10222000CC6823F440732343036090428B68C362FD
:102230000B88836204D0074B40F480629A4201D13C
:1022400009690163416941F001014161002010BD4C
:10225000002C0140004401400040014080B5084886
:10226000012101620021C0E9051181800549016059
:10227000FEF7E0FF18B1BDE88040FEF7AEBF80BDBD
:10228000946B00200030024082B00A48016841F09F
:1022900004010160016801F00401019101990168E4
:1022A00041F001010160006800F001000090009819
:1022B00002B070474C100240B0B586B06C46142195
:1022C0002046FDF7CCFFD0484FF080524FF08045BC
:1022D000016841F0010101600021006800F0010087
:1022E0000590059812480068124880F81C13026097
:1022F00041F28830CDE90110092003912146ADF863
:1023000000004FF08040FFF771FF28680B4A40F053
:10231000800028600848416811404160016821F050
:1023200070010160416821F08001416006B0B0BDDC
:102330000CED00E000E100E004000040F8BFFEFF0B
:1023400010B50C480C4C00210C224FF4E133C0E9CD
:102350000043C0E90211C0E90412C0E90611C0E956
:102360000811FFF723FE18B1BDE81040FEF735BF96
:1023700010BD00BFB86B00200044004000F04EBB11
:10238000FEE7FEE7B8EEC11AB4EE410AF1EE10FA2C
:102390007047306840F008003060D4E907013268C7
:1023A00022F0F00211433160716821F47F4141EA6B
:1023B000002070607047242060672068016821F069
:1023C00001010160204600F015BA306840F08070CD
:1023D0003060F06840F08070F060FFF74FB8FA6F3F
:1023E00022F040620A43B1F1806FFA67704721F42E
:1023F000D0710160816821F0010181602020606757
:10240000704700222B460090204600F0C7BA0022F9
:102410004346009500F0C2BA2068416821F490411B
:10242000416081687047411B0320022970470020EA
:1024300084F870002046FFF7D5BD204600F05FB954
:102440003060FFF71BB8515C01F01F01C8407047B6
:10245000016841F00101016020467047C1F303119A
:10246000515C01F01F01C84070477047F8B5A14F9B
:1024700004460D46F86880070FD0F868216800F020
:102480000300884245D1002843D06068F968C1F351
:102490000211013181421CD03BE02068032807D0A3
:1024A000022833D0012834D13968890706D430E0B6
:1024B0003968890302D4396849032AD561686FF005
:1024C0000F0202EB0111FA6822F073021043084375
:1024D000F860386820F080603860FEF7CFFF06466D
:1024E0003868000105D5FEF7C9FF801B0228F7D91F
:1024F0003EE0012D0FD0EDB9386923490840D4E9F9
:10250000021240EA012040EAC26021E03968490530
:10251000D4D40120F8BD1A483969226900F1B460A9
:102520000840A16840EA0120164901EB02516FF30F
:1025300014010CE03869124962690840A16840EA58
:1025400001204FF07E4101EB026101F07E41084322
:102550003861386840F080603860FEF78FFF0546CC
:102560003868000106D4FEF789FF401B0228F7D91E
:102570000320F8BDA0693969084338610020F8BD1F
:10258000FF80FFF90000E0FFFF80FF07BCB51E4D94
:1025900004462868C0000FD4286840F080502860A6
:1025A000286800F0805001900198FFF737F82968FB
:1025B00021F08051296001E0FFF730F8B0F5007F8D
:1025C00006D1812C08D30120A02C88BF02200DE069
:1025D000802C03D9032009E0002007E0A4F170005B
:1025E000B0FA80F04009802C08BF022007490A6831
:1025F00022F0070202440A60096801F00701081A84
:1026000018BF0120BCBD00BF58100240002002408E
:102610007047FEF737BFB0B5ACB01BAC2421201D0E
:10262000FDF71DFE01A85421FDF719FE0721022028
:10263000002529912821CDE92A0028910121CDE901
:10264000250160202791CDE92115239010201B90B2
:102650002046FFF7FDF918B1EFF3108072B6FEE7E0
:1026600003201A95CDE91855042117900F201690D4
:1026700016A8FFF7EFF818B1EFF3108072B6FEE777
:1026800000200A900220019001A8FEF7CDFF18B1AA
:10269000EFF3108072B6FEE74FF40070FEF788FF8C
:1026A00018B1EFF3108072B6FEE72CB0B0BD000099
:1026B00010B50F48104CD0F8801041F47001C0F8EC
:1026C00080100C490A6842F001020A6000228A6008
:1026D0000B6823400B604FF48053CB600B6823F4EE
:1026E00080230B608A614FF00061016010BD00BF64
:1026F00008ED00E000100240FFFFF6EA704710B559
:10270000416ACA0706D00268836A546824F4003418
:10271000234353608A0706D50268C36A546824F4C9
:102720008034234353604A0706D50268036B54681C
:1027300024F48024234353600A0706D50268436BC0
:10274000546824F4004423435360CA0606D5026843
:10275000836B946824F48054234393608A0606D5DF
:102760000268C36B946824F40054234393604A06C0
:102770000FD50268036C546824F480141C43B3F52D
:10278000801F546005D1436C546824F4C004234373
:102790005360090606D50168806C4A6822F400225D
:1027A0001043486010BDBCB504460020E067FEF74A
:1027B00065FE054620680168090707D56FF07E4071
:1027C0004FF40011FFF71DFE50B920680068400764
:1027D00008D56FF07E404FF48001FFF712FE08B17C
:1027E0000320BCBD20210020616784F87000A16730
:1027F000BCBD000070B50168044680685B4ED4E93A
:1028000003320D681043E269354066693043104376
:1028100028430860486820F440501843544B4860EF
:10282000A06999421CBF256A28438D6825F430654C
:10283000284388604F48814208D099420AD04E48C8
:10284000814210D14D484FA5006807E04B48006811
:10285000800802E049480068800A494D00F0030002
:1028600055F8205000E010254A48994210D0012127
:10287000B2F5004F1AD1082D00F27280DFE805F0A2
:1028800005434C70467070704A00FFF777F83FE0E0
:102890000121082D00F26480DFE805F005621A626C
:1028A000146262621800FFF769F80DE0082D57D82E
:1028B000DFE805F005404956435656564700FFF7F6
:1028C0005DF83CE0FFF774F810B946E04FF40040C3
:1028D000626802EB4201884241D3B0EB023F3ED82E
:1028E00000215FEA51014FEA320313EB002341EB71
:1028F000106118460023FDF765FC274AA0F54071DA
:10290000914228D32BE0FFF743F801E0FFF750F89E
:1029100010B922E04FF4004061684A0802EB400021
:10292000B0FBF1F04FF6F071014018D0C0F3420057
:10293000084310E0FFF72CF801E0FFF739F810B971
:102940000BE04FF40040616800EB5100B0FBF1F088
:1029500080B2102803D32168C860002100E0012163
:102960000020C4E91800084670BD00BFF369FFEFFE
:1029700000800040004400400038014088100240C0
:10298000905F000801000000040000000200000049
:10299000080000000024F40000FD0F002DE9F843BA
:1029A000DDF8209004460068984616460F4609F167
:1029B0000105C1693940C91BB1FA81F14909B14228
:1029C0001BD1002DF5D0FEF759FDA0EB08022068C1
:1029D00001684A4514D8B9F1000F11D04907E8D56C
:1029E000C1690905E5D54FF4006101620168FFF78F
:1029F000FEFCA06704F17C0006E00020BDE8F8833F
:102A0000FFF7F5FC04F17800002184F87010202114
:102A100001600320BDE8F883FEE70000BCB50D4867
:102A2000174C0022019001A9204600F035F800065D
:102A300002D04FF0FF350AE020680021002500F0A9
:102A40002DF960602068002100F030F9A060284670
:102A5000BCBD00BF400A0020B0B5094DD5E9004318
:102A600058602046AA685160194600F02BF90128E9
:102A700004BF0020B0BD286800F066F8000AB0BDB1
:102A800060090020E0B500220523CDE900328B4A21
:102A9000012302F0BBFA8CBD2DE9F0478EB00F4642
:102AA000002116468146FFF7EDFF824600062FD132
:102AB000E846404600F030F828B377B108F10C043E
:102AC0000025BDF80E00854207D257F82520204684
:102AD000294601F0E7FD0135F3E776B108F104047A
:102AE0000025BDF80600854207D256F8252020466D
:102AF000294601F0D7FD0135F3E7D9F80000694612
:102B000000F024F820B9D9F8000002F007FB824653
:102B100050460EB0BDE8F08780B1F8B50849D1E95C
:102B20000012CDE902120749D1E90012CDE90012E5
:102B3000694602AA02F0F4F904B080BD0020704793
:102B4000385F0008405F000802F0E8BA2DE9F8435A
:102B50000F46044602F0F0FA002861D0DFF82C811D
:102B6000064601213A46404602F014FA8146002802
:102B700059D0474AD8F800001169156AD2F800C048
:102B8000C2E9060041F08041116145F080411162C7
:102B900000F1B401C2E90A113E490B6E0D6B43F01E
:102BA00080430B6600F1C003C1E91A334CF0804347
:102BB000136000F1CC03C2E9023345F0804200F516
:102BC000EA730A6300F1D802C1E9123300F5F07329
:102BD000C1E90E220A6CC1E9023300F5F673C1E9BE
:102BE000063300F5FC7342F080420A640A6842F042
:102BF00080420A600A6942F080420A6126490A6BF3
:102C0000CB6300F50E7300F5BA60C1E912008B6367
:102C100042F080420A630A6C42F08040086407E098
:102C20000020BDE8F88330463021122202F05AFB22
:102C300008F1040001213A4602F096F90746C0B1B6
:102C4000D8F804001449134B00F6C812C1E91A0061
:102C5000C1E90A00C1E9022200F10C0200F6586045
:102C6000C3E91622C3E90A22C1E91600C1E9060038
:102C700004E030463021132202F034FB204609EAFA
:102C8000070502F0E2FA2840BDE8F8837C0900203D
:102C900014010020A40000201400002008B102F05C
:102CA0008DB90648064A026002F088B908B102F000
:102CB0001FBB0248024A026002F01ABBD005002086
:102CC0000001C0A102F0E4BAB6EE001A20EE010A3B
:102CD000B2EE0E1A81EE000A00F0C4B9B0B5404D54
:102CE000DF4C95ED000A2046B8EEC00AFFF7ECFF76
:102CF0000020102803D0216921500430F9E7204634
:102D000000F076F8204600F0D8FAEA68334D204605
:102D1000294600F08DF841F2A8623349A85888503E
:102D200000228242A8BFB0BDB5EC010A0132BDEE5F
:102D3000C00A10EE103A54F8233008C1F1E700BF82
:102D4000F0B52748274D254A41F2A86C2249B7EE35
:102D5000002A254E9FED255A0024002790ED051AE4
:102D600090ED040A52F80C3095ED003A95ED014AC9
:102D7000002041F80C4032EE412A9F42A8BFF0BD2E
:102D8000F0EE450AC0071CBF01EB840050ED010ABC
:102D900092ED007A96ED006A77EE600AF4EE400A52
:102DA000F1EE10FA00DC94B9B4EE446AF1EE10FAD8
:102DB0000DDD22EE033A601C01EB840401EE063ABD
:102DC00084ED007A044641F80C0085ED003A0432A7
:102DD000043601370120D0E7C07F00209027002073
:102DE00084000020740900203C3E00200000000008
:102DF00041F2A86100224158043002398A42A8BF3A
:102E0000704710ED010A90ED001A013231EE400AD0
:102E100000ED010A0430F1E7E0B573480DF1070158
:102E200001224FF6FF73FFF71DF99DF807008CBDD7
:102E30002DE9F84F2DED028BADF52F5D86B0814663
:102E400041F2A86003919FED5E0B92464FF000089F
:102E500059F8006009EB000102915BEC107B06EB76
:102E60004200049003A800F5A954D0450DDAD9F822
:102E70000000FDF7C0FD3A465B46FDF776FCFDF726
:102E8000CDFD01C408F10108EFE70498A0EB0A05A5
:102E900003A800F5A95000EB850409EB8600A0F11A
:102EA0000408049885420CDAD8F80000FDF7A3FD69
:102EB0003A465B46FDF759FCFDF7B0FD01C401350C
:102EC000EFE703A8DDE902B800214B4600F5A95061
:102ED00000EB8A0C6246B14203DA01CB013101C238
:102EE000F9E7002105AC0122B14203DA44F82120C0
:102EF0000131F9E700216FF003020423514528DA7C
:102F000000256746B54220DA54F82500012816DB73
:102F1000F81890ED000AB81890ED001A0020B4EEF1
:102F2000410AF1EE10FAC8BFB0EE401A97ED000A60
:102F3000B4EE410AF1EE10FAC8BF012000E0002013
:102F400044F8250004370135DCE70433043A013145
:102F5000D4E741F2A8609FED188B0027002608EB0C
:102F6000000A48F80070DBF8000086421BDA54F8CB
:102F70002600A0B1D9F80000FDF73DFD53EC182B59
:102F8000FDF711FD58B900EE106A781C08EB8701B7
:102F90000746B8EEC00ACAF8000081ED000A09F140
:102FA00004090136DFE70DF52F5D06B0BDEC028B9D
:102FB00001B000F009B800BFFCA9F1D24D62403F5A
:102FC0008DEDB5A0F7C6B0BE30BCBDE8C08F000027
:102FD000E0B50190044801A901224FF6FF73FFF705
:102FE000AAF801988CBD00BFB86B0020BCB50D4D90
:102FF0002868FEF743FA69684C1CA968611A0191B8
:103000002968C90304D5FEF739FAA968611A019144
:10301000019A4FF47A714A43B2FBF4F200FB0120AB
:10302000BCBD00BF10E000E0F0B5DFF834C0002206
:1030300041F288330024012A0DD00CEB840540F2C4
:10304000E246074626B102CF013E013402C5F9E748
:1030500018440132EFE741F2A8604CF80040F0BD9F
:10306000E854002041F2A861B7EE001A002241584E
:1030700031EE401A8A42A8BF704790ED003A013203
:1030800023EE003A02EE013AA0EC013AB0EE432AF8
:10309000F0E700000000000084B000200290FEF77E
:1030A000FBF9FFF7B8FAFFF7EFF8FFF7D7F8FFF7EC
:1030B00047F9FFF701F9FFF761F99FED330B364E42
:1030C00041F2883A0FF2D4080DF10C0951EC100BC3
:1030D000CDE900102EA000F035F900243546B346A6
:1030E000012C0ED040F2E2462F463EB14046494602
:1030F000FDF7CEF80398013E01C7F6E755440134C9
:10310000EEE70120FEF7E4F8FFF770FF24490546DB
:10311000584600F053F8FFF769FF5E46834621A04A
:1031200000F010F90120FEF7D3F81FA002A9FDF767
:10313000AFF80298C828CDD15846FDF74FFC044699
:1031400028460F46FDF74AFC02460B462046144C23
:103150003946FDF7ABFBDDE90032FDF7B5FB94ED39
:10316000000A94ED011A024612A010A3B4EE410A1F
:10317000F1EE10FAC8BF18460B4600F0E3F8142031
:10318000FEF7A6F8A6E700BF0000000080842E41ED
:10319000626567696E000000386C002025660000DB
:1031A0006C9600206F6B000025640000302C252EEB
:1031B00036660000312C252E366600002DE9F84FCA
:1031C00004AF88468146FFF72FFFFFF787FDFFF723
:1031D000B7FD334A41F2A86007211358581E01EB8E
:1031E000800121F00701ADEB01018D46042B4CDB82
:1031F0009FED2F0A00266FF0030CB5B2AB4213DD32
:1032000034040FD002EB850494ED001A0CEB850416
:1032100015190C4495ED002A31EE421A81EE001A80
:1032200084ED001A0136E8E703282ED39FED1D0A2E
:10323000002293B2984207D901EB8303013293ED48
:10324000001A30EE010AF4E701EE100A1748B8EE52
:10325000411A80EE010A9FED141A81EE000A90EDEA
:10326000011AFFF78FF803DD4FF07E50002107E0D1
:1032700090ED021AFFF786F807DA00204FF07E5132
:10328000C8F80010C8F8040003E048464146FFF7BC
:10329000E3FBA7F10C040020A54600F00BB800BF2B
:1032A000C07F002000000000000070428400002069
:1032B00000007A4330BCBDE8C08F41F2A861002213
:1032C00041588A42A8BF704790ED000A013220EEB3
:1032D000000AA0EC010AF4E7144810B5016821F0D7
:1032E0000101016000F033FA11490968114BC1F383
:1032F0000221114A012404290BD010490C600C68EA
:10330000002CFCD10D4908390B60096891420AD0A4
:10331000FEE70B498C608C68002CFCD10B600968BF
:10332000914200D0FEE700F080FA10BD002000E0DE
:10333000002004E0C2A507F4CDB5E8B5084C02585A
:10334000003002400FB4054B10B503A9044A02989F
:1033500000F050FD10BC5DF814FB0000D12F0008F8
:10336000040000209FED3C0A63E000BF92ED003AAC
:1033700091ED004AD2ED012AD1ED013A04EE030AA3
:1033800092ED022A91ED021AD2ED030AD1ED031A51
:1033900091ED044A03EEA20AD2ED043A92ED053A09
:1033A000D1ED052A01EE020A92ED062A92ED071AE6
:1033B00001EEA00AD1ED061AD1ED070A04EE230AA8
:1033C000D2ED083A91ED084A02EE830AD2ED092ABD
:1033D00091ED093A01EE820A92ED0A2AD1ED0A1A1C
:1033E00000EE810A92ED0B1AD1ED0B0A04EE230ACE
:1033F00091ED0C4AD1ED0D3A03EE220A92ED0C3A12
:10340000D2ED0D2A01EE820A92ED0E2AD1ED0F1AAD
:1034100000EE810A91ED0E1AD2ED0F0A40314032D2
:10342000103B04EE030A03EEA20A01EE020A01EECB
:10343000A00A102B9AD206E0F1EC010A5B1EB2EC56
:10344000011A00EE810A002BF6D1D0ED000A30EE11
:10345000800A80ED000A70470000000030B528B1F6
:10346000144C031F002021680A4605E0084630BDC1
:103470009A4203D810465268002AF9D1002800D099
:1034800041680BD00468A3EB0005A54204D11B687A
:103490001C440346046002E0436000E023603AB14C
:1034A0001C68D51AA54203D115682C441C605268CB
:1034B0005A6030BD080000202DE9F04782460F4CCD
:1034C00010480D4E0E4F001B4FF0000820F007056E
:1034D0004FF0010900221146504602F093FA0028ED
:1034E00002D1306810B10020BDE8F0873C60C4E92B
:1034F0000058C6F80090EDE70C0000207C960020F4
:1035000008000020789E002002E008C8121F08C1B1
:10351000002AFAD170477047002001E001C1121F54
:10352000002AFBD170470000F0B5059D25F001048D
:1035300003EB84069FED460AEF085AE051F8044B6E
:10354000D3ED002A04F0FF0C4FEA1C1E02EB8E0E96
:103550000CF00F0C9EED002A02EB8C0C02EE220AFE
:10356000DCED001A93ED012AC4F3072C4FEA1C1E70
:1035700002EB8E0E01EE820A9EED001AD3ED021AC6
:103580000CF00F0C02EB8C0CD3ED042A01EE210A97
:10359000DCED000A93ED031AC4F3074C4FEA1C1E3E
:1035A00002EB8E0E00EE810A9EED002A0CF00F0C4D
:1035B00002EB8C0C240EDCED001A02EE220A93EDD5
:1035C000052A4FEA141C02EB8C0C04F00F049CED4E
:1035D000001A01EE820AD3ED061A02EB8404D4ED40
:1035E000000A01EE210A93ED071A20337F1E00EE38
:1035F000810A002FA2D115E011F8014B93ED001ABA
:10360000270902EB870704F00F04D7ED000A02EB4D
:10361000840400EE810AD4ED000A93ED011A083308
:1036200000EE810AB342E7D3EC0709D0097893EDA5
:10363000001A090902EB8101D1ED000A00EE810AAE
:10364000D0ED000A30EE800A80ED000AF0BD0000E7
:1036500000000000F0B59FED380A059DEE0851E02E
:1036600051F8044BD3ED002AE7B202EB8707D7ED00
:10367000001AC4F3072702EB870701EEA20A97EDB1
:10368000002AD3ED011AC4F3074702EB8707240E83
:1036900002EE210A97ED001AD3ED021A02EB840420
:1036A000D3ED042AD4ED000A01EE210A93ED031AAA
:1036B00051F8044BE7B202EB870700EE810A97ED61
:1036C000002AC4F3072702EB8707D7ED001A02EEA2
:1036D000220A93ED052AC4F3074702EB8707240E5D
:1036E00097ED001A01EE820AD3ED061A02EB84046C
:1036F000D4ED000A01EE210A93ED071A2033761E5D
:1037000000EE810A002EABD105F007040BE000BFEC
:1037100011F8015B641E02EB8505B3EC011AD5EDCF
:10372000000A00EE810A002CF2D1D0ED000A30EE42
:10373000800A80ED000AF0BD0000000010B541696C
:10374000044688472069A04200D1002010BD012016
:10375000704700002DE9F04F002799B089460446D4
:103760003E46B84646E0A068C6EBC602416801EB9B
:1037700082010E91806810A900EBC60A28480D91BD
:10378000AA68406A120A62F31F2001901C2105A852
:10379000D5F80CB0FCF763FDA869006800F0EEFEF8
:1037A0000590A869806806905FEA0A0008D0C0F812
:1037B00000802968416029B1498819B1012102E0DE
:1037C000404603E00021016001B900200790A8698C
:1037D00001991C224068CDE90A1B099005A90D98A2
:1037E000FCF724FD1C2210A90E98FCF71FFD7F1C7E
:1037F000BFB2761C0CB1208800E00020B04205D991
:10380000606818B150F82650002DACD11FB1A068E7
:103810004168C9F8001019B0384600F003B800003C
:103820000C5C000830BCBDE8C08F70472DE9FF5F1D
:1038300082B00021DDE90430020DDDF840B0034321
:1038400018D044F61050A2F2FF32424315141198DA
:1038500001281FD0A5EB0B00401C5FEA000A4FF0C7
:1038600000064E4FDFF83891B046504615D5CAF1E4
:10387000000413E0119801244AA3012801D16FEA42
:103880000B010298119AC0E90031C0E9024206B06A
:1038900000F08EB8CBF10000DFE704460021404A7B
:1038A000491842EB0450CDE9001012E0E00707D0C0
:1038B00032463B4640464946FDF7C0F980468946B8
:1038C00032463B4610461946FDF7B8F906460F4604
:1038D0006410002CEAD1DDE90401DDE90023BAF12E
:1038E000000F06DAFDF7AAF942464B46FDF7A6F9A6
:1038F00005E0FCF7E9FF42464B46FCF7E5FF0446CE
:103900000E460022284BFDF733FA03D84FF0FF3064
:10391000014607E00022254B20463146FCF725FFF3
:10392000FDF70DFA102409E0002C0ADB0A2200231F
:10393000FCF748FC039B30321A55641E50EA010222
:10394000F2D1641C039AC4F111031444119A012AA0
:1039500003D0012208430DD10AE0084304D000201F
:103960004FF0110B119072E7A3EB0B056D1E0DE0EC
:103970005B4504DD4FF0000205F1010504E003DAC8
:103980004FF00002A5F10105002AECD00298119930
:10399000C0E90231C0E9004579E7000000001440A9
:1039A0000000F03F300000000000F0430000E03F66
:1039B00030BCBDE8C09F30380A2801D201207047D2
:1039C0000020704770B505460C46488869888842D3
:1039D00002D9AAB1002070BD92B100260CE000BF50
:1039E0006168C6EBC6006A6801EB800102EB8000EB
:1039F0001C22FCF71BFC761C6088B042F0D801E06A
:103A0000606868606088688020882880012070BDB8
:103A100030B500B3F9B1F2B15268E2B10F4C13689E
:103A2000A34203D00260012913D014E00023121D29
:103A300007E000BF52F82350A54204D040F82350BD
:103A40005B1C8B42F6D38B4205D152F82300A04277
:103A500001D1012030BD002030BD0000DECAFAA136
:103A600070B50D46060014461AD0CCB1104600F0D1
:103A70002BFE00B16088A84212D10023042109E086
:103A8000C3EBC302606801EB8202805820B146F8A4
:103A900023005B1CAB42F3D3AB4201D1012070BDCC
:103AA000002070BD0349884201D1012070470020E9
:103AB00070470000DECAFAA12DE9FE4F9246894602
:103AC000040003D0A08D20B1256B03E0002000F09E
:103AD000FBB800250020E082A082207BC043800745
:103AE00002D030221121DCE0B9F1000F61D0D5B352
:103AF0002888C0B3D9F818000026D0F8008056E016
:103B0000A868006800EB0610019052D058B3C6EBCD
:103B1000C600029009EB80000121009000F0DEFD5C
:103B2000DBF81830596888421AD80098DBF80C2066
:103B30008069D768D0F80CC0674511D19768D0F874
:103B400008C067450CD152684068824208D11868A5
:103B500000F005FD0746584601F040FF874203D2BA
:103B6000182212219DE024E0DBF81800006800F024
:103B700005FD029920F07E4259F8210020F07E4098
:103B8000824201D01922ECE70098406888B1009881
:103B90008069006878B14146404500D208468046B9
:103BA000DDE900105A4600F092F8761C2DB1288805
:103BB00004E01722D5E72122D3E70020B04206D93E
:103BC000686820B150F826B0BBF1000F98D1BAF167
:103BD000000F74D0A08D012806D9256B0C3503D0B9
:103BE000288808B1002658E0182259E0A868006823
:103BF00000EB061B3BD0BBF1000F38D0C6EBC60074
:103C000001900AEB80000121009000F067FDD9F8D7
:103C1000183059688842E7D80098D9F80C20806994
:103C2000D768D0F80CC06745DED19768D0F808C0D7
:103C30006745D9D1526840688242D5D1186800F0F2
:103C40008EFC0746484601F0C9FE8742CCD3D9F81E
:103C50001800006800F092FC20F07E4201985AF8AB
:103C6000200020F07E40824203D0192218E0172263
:103C700016E0009840680028F9D000988069006834
:103C800068B14146404500D2084680464A465846FB
:103C9000009900F01CF8761C3DB1288806E021222E
:103CA0001321204601F01EFB10E70020B04206D988
:103CB000686820B150F82690B9F1000F96D1A4F8A9
:103CC00014804FF0010002E71EBCBDE8E08F70B524
:103CD00004460E461546104601F080FE0146A060DF
:103CE000B06900684843E0607168616072681044C0
:103CF0002060A8690268920007D4D0E90223D21A92
:103D000011448160A9696068C86070BD70B50546DE
:103D1000002621E0A9688369096801EB0614196887
:103D2000890005D5D4E901129868FCF77FFA08E00C
:103D3000D3E90212891A6268114499608069616846
:103D4000C160D4E90101084460602168884201D360
:103D5000E068081A761C60600DB1288800E0002039
:103D6000B04206D96868002803D050F82600002821
:103D7000D0D170BD2DE9F041054600262BE0A968A1
:103D8000096801EB061481690A6892000FD5A268E0
:103D900089686068FCF74AFAD4E90110014461605F
:103DA0002068814201D3E168411A616012E0D4E9E0
:103DB0000112114461602268914201D3E168511AF5
:103DC00061608269D2E90237DB1B19449160806926
:103DD0006168C160761C0DB1288800E00020B04207
:103DE00006D96868002803D050F826000028C6D1FC
:103DF000BDE8F0812DE9FF4F95B09B468946064608
:103E000000250FE2252877D100242746F84A012112
:103E1000059400E0044316F8013F203B01FA03F04B
:103E20001042F7D130782A2811D06FF02F03307864
:103E3000A0F13002092A16D8059A44F0020402EBD8
:103E4000820203EB42021044761C0590EFE759F81A
:103E5000042B0592002A03DA504244F400540590E2
:103E600044F00204761C30782E2816D116F8010F83
:103E700044F004042A280DD06FF02F023078A0F10E
:103E80003003092B09D807EB870302EB4303C7185C
:103E9000761CF3E759F8047B761C30786C280FD039
:103EA00006DC4C2817D068280DD06A2814D104E00D
:103EB000742810D07A280FD10DE044F400140AE0E1
:103EC00044F4801401E044F440147278824202D138
:103ED00004F58014761C761C307866280BD013DC31
:103EE000582877D009DC002875D04528F6D0462818
:103EF000F4D047281AD19DE118E0632835D0642812
:103F000079D0652812D195E1702873D008DC672834
:103F1000F1D069286FD06E280DD06F2806D1B5E09A
:103F200073282CD0752875D0782874D05A461799E4
:103F300090476D1C75E1C4F30250022809D0032894
:103F40000DD0D9F8001004280DD00D6009F1040936
:103F500067E1D9F80010EA17C1E90052F6E7D9F88D
:103F600000100D80F2E70D70F0E719F8041B8DF8D2
:103F7000001000208DF80100EA46012003E059F806
:103F800004AB4FF0FF3061074FF0000102D40DE0A9
:103F900008F101018846B9420FDA8045F8DB1AF8CA
:103FA00008100029F4D108E008F101018846814297
:103FB000FADB1AF808100029F6D105985B46A0EB49
:103FC000080721463846179A00F097FA284400EB74
:103FD000080507E04DE029E10DE01AF8010B5A460B
:103FE00017999047B8F10108F7D25B462146384649
:103FF000179A13E142E00A220092C4F302524FF0F2
:10400000000A022A08D059F804CB032A4FEAEC71BF
:104010000AD00DE029E02AE009F1070121F00702AA
:10402000F2E802C1914609E00FFA8CFC4FEAEC710C
:10403000042A03D14FFA8CFC4FEAEC71002907DA0D
:104040000A460021DCF1000C61EB02012D2202E0A6
:10405000220504D52B228DF80420012203E0E2077B
:1040600001D02022F7E7904659E00A2102E0102211
:104070000DE010214FF0000A00910BE010224FF0EC
:10408000000A44F004040827009203E008224FF0DD
:10409000000A0092C4F30252022A05D059F804CB58
:1040A0000021032A08D009E009F1070121F00702E5
:1040B000F2E802C1914605E01FFA8CFC042A01D106
:1040C0000CF0FF0C4FF00008220728D5702806D00E
:1040D000009B83F0100353EA0A0305D00EE0402250
:1040E0008DF80420012208E05CEA010206D03022AB
:1040F0008DF804208DF8050002229046009B83F085
:10410000080353EA0A030AD15CEA010201D16207FB
:1041100005D530228DF804204FF001087F1E582865
:1041200004D034A003900EA802900DE036A0F9E769
:1041300053466046009AFCF745F884460398825C33
:104140000298401E029002705CEA0100F0D10298D1
:1041500006A9081A00F1200A600702D524F4803469
:1041600000E00127574502DDA7EB0A0000E0002030
:1041700000EB0A01009005984144401A0590E003C5
:1041800006D45B462146179A059800F0B6F9054417
:10419000002706E001A85A46C05D179990476D1C9C
:1041A0007F1C4745F6DBE0030CD55B462146179A9A
:1041B000059800F0A2F9054404E030205A4617990A
:1041C00090476D1C0099481E00900029F5DC08E01E
:1041D000029802995A460078491C02911799904713
:1041E0006D1CBAF10001AAF1010AF1DC65E10000E1
:1041F00009280100303132333435363738396162BD
:104200006364656600000000303132333435363780
:1042100038394142434445460000000000F05BF954
:104220000544761C307800287FF4ECAD19B02846A0
:1042300000F04EB9620700D4062709F1070222F008
:10424000070CFCE80223E14603F000485FEA080C93
:1042500002D00FF2702C0DE05FEA045C02D50FF281
:10426000682C07E05FEAC47C02D00FF2602C01E00A
:10427000AFF2700C4FF0FF3823F00043CDF850C080
:1042800065280CD006DC452809D046281DD04728D3
:104290003DD13DE0662818D067287ED138E0002166
:1042A000112F01DB112000E0781CCDE9000106A9E7
:1042B0000EA8FFF7BBFADDE90F010E9A039100216A
:1042C000009207F1010A04914DE04FF00040009781
:1042D000CDE9011006A90EA8FFF7A8FADDE90F0243
:1042E00003920E9B11990022DDF80CA0009304921A
:1042F00011B9791C00EB010AB7EB0A0004D4C0F134
:10430000FF3007F1010A0490AAEB0700019044E096
:10431000012F00DA01270021112F01DD112000E01B
:104320003846CDE9000106A90EA8FFF77FFADDE9BE
:104330000F010E9A0391002104910092BA462107C1
:104340000CD40399514500DA8A46BAF1010F05DD14
:10435000009AAAF10101515C302908D0B84202DA72
:1043600010F1040F06DA0121CDE9011015E0AAF1E0
:104370000101E9E7002805DC049901440491AAEB56
:10438000000102E0411C514500DD8A460499401AB3
:10439000401C01904FF000400290200704D4019887
:1043A000504501DBCDF8048000208DF84F000298C5
:1043B0000DF14F07B0F1004F25D02B200E90029841
:1043C0004FF0020800280CDA404202902D200E9097
:1043D00007E00A210298FCF73DFB3031029007F814
:1043E000011DB8F10001A8F10108F2DC02980028D3
:1043F000EFD1791E0E980870307800F0200040F060
:10440000450007F8020D12A8C01B00F10708149818
:10441000007800B1012000EB0A01019801EBE07186
:1044200005984144401A401E0590E00306D45B46BF
:104430002146179A059800F060F805441498007812
:1044400018B15A46179990476D1CE00324D55B4676
:104450002146179A059800F050F805441CE004988E
:10446000002807DBDDE90301884203DD0098405C9A
:10447000179901E0179930205A469047049805F1A2
:104480000105401C04900198401E019004D12E208B
:104490005A46179990476D1CBAF10001AAF1010A1A
:1044A000DDDC05E017F8010B5A46179990476D1CA3
:1044B000B8F10001A8F10108F4DC5B462146179A27
:1044C0000598ABE62D0000002B0000002000000046
:1044D00030BCBDE8C08F2DE9F041044600251E46E2
:1044E0001746880404D405E039462020B0476D1CE7
:1044F000641EF9D52846BDE8F0812DE9F041044657
:1045000000251E469046C80301D5302700E020272D
:10451000880404D505E041463846B0476D1C641E4A
:10452000F9D52846BDE8F08179B1C0F3C6125143F0
:10453000C91DC0F3415321F00701D940C0F34340E6
:10454000042804D0082807D104E00020704701EBBC
:10455000021101E001EB0221C91DC808704759B1E1
:10456000C0F3C6125143C91D21F00701C0F34150E9
:10457000C140C91DC80870470020704770B5402170
:10458000C0F34342022A1BD0394A20F07E439C1AD2
:104590000D014E0193425FD029DC364AA3EB0204A1
:1045A000934259D019DC402B57D0403BB3F58023C0
:1045B0004CD0802B37D0AB424FD12E49C91F4CE095
:1045C000C0F3C051C905C0F3C61241EAC21100F0E0
:1045D0007F02114341F480213FE0A4F54074F93C8F
:1045E0001FD00F2C35D0B44237D1234935E0234BAF
:1045F000E21A9C421BD00BDC214AA2181DD0802A53
:1046000019D0AA4211D0A2F58062073A25D117E04D
:104610000F2A18D0B2420CD01A4BDA421DD11A49D7
:104620001BE01A4919E01A4917E01A4915E01A491E
:1046300013E01A4911E01A490FE0194980390CE0DA
:104640001449C91D09E014490F3106E010498039A9
:1046500003E00E490F3100E0114600F080420A43AA
:1046600000F00051114300F00060084370BD0000ED
:1046700040040600470404004010040000047E00CB
:10468000000482FF00F801FF40108201400804008E
:10469000C0000400400484004008840040108400EE
:1046A000C000840070B514460D46064600F00CF8B4
:1046B00040B17068C5EBC50110EB810002D04460C9
:1046C000012070BD002070BD28B1416819B140883B
:1046D00008B10120704700207047000010B50200AB
:1046E0002AD0164B1068B3EBC01F03D0144BB3EBAA
:1046F000C01F01D1012000E00020084290694068FD
:1047000002D01F3020F01F005369D9B2012900D018
:1047100000211C0A07E0012907D0936953F82130D2
:104720005843491C1AB1234602E00123F8E700234D
:104730008B42F0DC002800DC002010BD006000424D
:104740000060000208B509A10968009148B101782C
:104750009DF80020914204D104226946FBF78AFDAE
:1047600008B1002008BD012008BD000003840484B6
:104770002DE9FF4F83B0DDE91141B1FBF4FADDE92A
:104780001370DDE91895DDE91668791B6143029124
:10479000DDF840E0DDF854C0411B0191ACEB0801AD
:1047A000414306FB0090009103EB8001049B9E4572
:1047B00002D19FED361A01E0B7EE001A7E43664340
:1047C00002EB86024FF0000902EB840B58E0002751
:1047D00053E000BF0EEB8900002690ED000A104662
:1047E00020EE010A3CE0002325F0030C22E000BF8C
:1047F000D1ED002A90ED003A00EB840091ED012A02
:1048000002EE830AD0ED002A00EB8400D1ED021AFB
:10481000D1ED030A103102EE220A90ED002A00EBDE
:1048200084001B1D01EE820AD0ED001A00EB84000B
:1048300000EEA10A9C45DBDC09E000BFF1EC010AB7
:10484000D0ED001A00EB84005B1C00EEA10AAB4225
:10485000F4DB029B761C00EB8300019B01EB8301E0
:104860004645C0DB00987F1C01EB8001049800EBFB
:10487000890009F1010980ED000A5745AAD3121DEC
:104880009345A4D807B000F003B800000000000072
:1048900030BCBDE8C08F00002DE9FF4F86B017ACDB
:1048A000DDE91EC794E845009CFBF0F400FB14C44E
:1048B000041B94FBF0F5DDE91C9100FB154E99FB00
:1048C000F2F502FB1594141B94FBF2F502FB15455F
:1048D0000CEB0004641E94FBF0FC09EB0204641E64
:1048E00094FBF2F8A7EB0E04DDE9143B491B1144DD
:1048F000491E91FBF2F7DDF86CA00444641E94FBA2
:10490000F0F4CDE9008CDDF858C0B3FBFAF102FBFE
:104910000CF200FB142258435A43401ACDE904021A
:10492000301B48431A9A039001FB06F0D21B5043F8
:10493000DDE9008C029008FB06C0BBFBFAFB099A7C
:10494000484302EB8002079E1398B04202D1DFED8C
:104950002A0A01E0F7EE000A169809EB050606FBA5
:1049600000E05843089B4FF0000803EB800E4046E0
:104970003BE0002633E01398002500EB880090ED23
:10498000000A704620EE200A1CE0002311E000BF60
:1049900000EB810C06E000BFB2EC011AF0EC011A4A
:1049A00001EE210A6045F7D3DDF810C05B1C00EB77
:1049B0008C00A342ECDB059B6D1C00EB8300039B8A
:1049C00002EB8302BD42E0DB0298761C02EB800220
:1049D000079800EB880008F1010880ED000A5E45A9
:1049E000C9D30EEB810E09F1010081465045C0D3B9
:1049F0000AB000F003B800000000000030BCBDE8C1
:104A0000C08F00002DE9FF4F2DED020B82B0DDE9D4
:104A10001709DDE914E8119A00FB08F0504303EB95
:104A2000800A0027DDF84CB0199CA8E06342002BF7
:104A300000DC0023ABEB0405454500D34546E018F8
:104A40000699504301EB800103FB02F0EB1AABEB3C
:104A5000030555430195A8EB0305554300950AEB63
:104A6000800002FB03F5F0EE400A00267AE0002306
:104A700025F00F0C63E000BF91ED004AD0ED004A35
:104A800091ED013A90ED011A44EE840AD1ED023A1B
:104A9000D0ED022A91ED032AD0ED031A91ED044ADC
:104AA00041EE030AD0ED044A90ED063A90ED071A64
:104AB00042EEA30AD1ED053AD1ED062A41EE820A73
:104AC00090ED052AD1ED071A44EE840AD1ED084A8B
:104AD00090ED084A42EE230AD0ED093A91ED0A2AF8
:104AE00043EE220A91ED093AD0ED0A2A41EE210A5D
:104AF00091ED0B1AD0ED0B1A44EE240A91ED0C4AFD
:104B0000D0ED0C4A43EE830A91ED0D3AD0ED0D3A0B
:104B100042EE820AD0ED0E2A91ED0F2A41EE810A73
:104B200091ED0E1AD0ED0F1A40304031103344EEA3
:104B3000840A43EE830A42EE810A41EE820A9C45D2
:104B40009ADC06E0B0EC011A5B1CF1EC011A41EEB4
:104B5000210AAB42F6DB019B761C01EB8301009B33
:104B600000EB83004E4582DB05987F1CC0ED000AF8
:104B70001299059800EB810005901A980444774536
:104B8000FFF454AF08B000F000B830BCBDE8C08FEF
:104B90002DE9FF4F89462DED028B8FB0DDE92C0307
:104BA0005843DDE92824DDE926B3DDE92075DDE998
:104BB0001EA6D21A0D92BBF1010F01D1012805D01A
:104BC000B34501D101287CD000200BE12A98CDF813
:104BD00038A01844684313997043DDF850B001EBD6
:104BE00080000C90CDF82890ABF100609FED808A9A
:104BF000DDE92312514301FB06F8B0F1807F31D289
:104C0000002027E0BAF1000F04D00E98B0EC010AA2
:104C10000E9001E0B0EE480A25980D9A2799CDE94B
:104C20000840CDE9061222AB0DF10C0C93E8070009
:104C300000968CE80700CDE901755B460C9A0A994D
:104C40001198FFF7DFFE0A980BEB880B001D0A9006
:104C500009F101008146B842D4D30FB0BDEC028BFC
:104C600000F0C8B84FEA8800FEF726FC0B90002041
:104C700037E000200AE000BF0BEB800191ED000A55
:104C80000B9901EB8001401C81ED000A8045F3D8AF
:104C9000BAF1000F04D00E98B0EC010A0E9001E0BA
:104CA000B0EE480A2599279806AB0D9A099183E83A
:104CB000150022AB93E8070003AB009683E80700DA
:104CC00000E01AE0CDE90175DDE90A130C9A1198AC
:104CD000FFF798FE0A980BEB880B001D0A9009F16C
:104CE00001008146B842C4D30B980FB0BDEC028BD3
:104CF00004B000F082B8FEF7B1BB002032E06042A1
:104D0000002800DC00202B992B1B8B4200D30B4684
:104D10002A99221801FB0521139A714302EB8102A3
:104D2000BAF1000101D08C4600E0CC46DDF89C8051
:104D30001B1A0D99CDF818800993CDE90710DDE90C
:104D40002301CDE90401CDE90275CDE900C649464C
:104D5000149B1198FFF70CFD259809EB8709044473
:104D60000BF10100834622988345C8D375E7604262
:104D7000002800DC00202B992A1B8A4200D30A4617
:104D80002A99231801FB0531139B714303EB810E14
:104D9000BAF1000101D00B4600E04B460D99CDE978
:104DA0000A10DDF89CC0121ACDF824C00C92DDE97F
:104DB0002321CDE90621DDF8B4C02C98CDF814C02C
:104DC000CDF820B0CDE903508DE8C80072464946C1
:104DD000149B1198FFF760FD259809EB870904449F
:104DE00008F10100229980468842C0D335E70000CF
:104DF000000000001FBCBDE8E08F30BCBDE8C04F24
:104E0000FFF779BFF0B5042BDDE9055400EB84040E
:104E100027D0082B27D12FE000236E0812E00F784F
:104E20003F0902EB870797ED000A80ED000A11F8B1
:104E3000017B07F00F0702EB870797ED000A80ED73
:104E4000010A08301F465B1CB742E8D3EB0708D0C5
:104E500011F8013B1B0902EB830393ED000AA0EC60
:104E6000010AA042D8D3F0BD11F8013B02EB830345
:104E700093ED000AA0EC010AA042F5D3F0BD70B595
:104E8000C66B416B04460025AEB1E9B1A1630120B8
:104E9000226CB0470220226CA16BB047A06BFEF7DA
:104EA0004DFCA06301460320226CB047A06B6D1C33
:104EB0000028EFD108E039B1A163A06BFEF73EFCFA
:104EC0006D1CA0630028F8D1284670BD0346002061
:104ED000596B002908D0CB600A69401C8A4203D074
:104EE000002A01D01146F6E770472DE9F041446BE6
:104EF000002594B1012600272079C00707D0216A38
:104F0000204611B18847304600E038460544206904
:104F1000A04202D008B10446EEE72846BDE8F08181
:104F200010B570B169B162B1074C0460D1E90041BC
:104F3000C0E90141D2E90012C0E903120123184679
:104F400010BD002010BD0000DECAFAA110B518B1D6
:104F5000044A0168914200D000200446FEF7BCF9E3
:104F6000204610BD0001C0A130B44AB140B139B1F2
:104F7000074C1368A34206D130BC0C32FEF770BD5B
:104F800030BC0020704730BC1C32FEF741BD000031
:104F9000DECAFAA130B44AB140B139B1064C136847
:104FA000A34206D130BC121DFEF75ABD30BC002012
:104FB000704730BCFEF72CBDDECAFAA138B50D46ED
:104FC000FFF7C4FF04000DD00DB100202880A08D94
:104FD00000B1206B6946FEF7BDFB30B105B12880FA
:104FE000009838BD1022114602E0182211212046F7
:104FF00000F078F9002038BD034810B54469FEF789
:105000006BF9204610BD00000C5C00082DE9F04F44
:1050100089B00646DDE912104FF0000A554663F3E9
:105020000705CDE9011361F30F259046544660F35F
:1050300017458346FEF78BFB304F01001CD03048EC
:1050400000680123C0F30220042806D02D4818224E
:1050500002600268182A13D00BE02B4814228360E8
:1050600083680BB1521EFBD1826812B90068401CE4
:105070000AD00846FEF7D9FBF86909B000F04AB833
:1050800003600268002AFCD10846FEF7CEFBFEF75B
:1050900023F9E6B11D49C8F80010C6F8008000F0F9
:1050A00062F9B0B1FFF7A8FF8146C5F30721E8B266
:1050B000002200F04CF90546C9F3072109F0FF0072
:1050C000002200F044F9854205D07C680BE0386A84
:1050D000D3E73C6807E00EA0006800906846FFF741
:1050E00031FB10B9BC68C6F800A0DDE901105A46D2
:1050F00000F02DF9C8F848002046BEE70C5C000817
:10510000002004E0084C0258003002400001C0A119
:105110000384048430BCBDE8C08F000010B5FFF7E5
:1051200015FF20B1BDE81040103000F016B901485D
:10513000806910BD0C5C00082DE9F04F91B00C4661
:10514000FFF704FF050013D0B4B13BA12068FEF7C0
:10515000A9FC06004FF0000B11D020680190D4E9A3
:105160000301CDE90401D4E90101CDE9020143E0E5
:10517000002011B000F066B81122102158E0012182
:105180002046D4F804A0FFF7A9FA804604F11C00D9
:10519000D4F8209001211090FFF7A0FA07461422BE
:1051A000274906A8FBF742F80120B8F1000F02D00A
:1051B000ADF81E0002E0ADF81EB0002408941FB147
:1051C000ADF82600109802E0ADF826B000200A9055
:1051D000B9F1000F02D10FB1132206E0BAF1000FAE
:1051E00005D1B8F1000F02D0122210211FE01422C5
:1051F00006A901A8FBF71AF886F00102144602A9D5
:1052000005F11C00FEF7DEFB68B1224604A905F19A
:105210002400FEF7D7FB40B10320E8602846FFF7E3
:1052200055FE2846A5E7122200E013221621284643
:1052300000F058F89CE70000696E697400000000F7
:10524000645C000830BCBDE8C08F70B5FFF77EFE1F
:10525000041E08D0207B800706D41022112120468E
:1052600000F040F8002070BD2046FFF73EFEE06BE6
:1052700060B1656B55B1D4E90F32294600209847DB
:105280002869A84202D008B10546F4E7012070BDA4
:1052900070B515460E46FFF759FE04462A463146BC
:1052A000FEF70AFC00281CD0A08D08B1256B00E099
:1052B0000025012802D9266B0C360DE000260BE0F4
:1052C0002846FEF723FD2046FFF7D9FD3046FEF7BE
:1052D00051FDE08A401CE082E08AA18A8842EFD337
:1052E00080B270BD002802D0103000F057B870476F
:1052F00038B50D46FFF72AFE040008D00DB1002096
:105300002880A08D012805D9206B0C3003E01022E5
:1053100011460BE000206946FEF71CFA18B105B1F2
:105320002880009838BD182211212046FFF7DAFFA7
:10533000002038BD02460068010A012004E05368DD
:10534000491E53F8213058430029F8D17047000610
:1053500040EA014040EA02207047002201680270E2
:105360000260084670470120704720B1806910B183
:1053700003C8FFF7D9B80120704710B1806900B1A8
:10538000014609B1886870470020704720B18169E3
:1053900011B140698068704700207047037813F0AE
:1053A000FF0F01D0002070470170016862F31F21D8
:1053B00001600120704700002DE9F04781690A88EB
:1053C0000AB1486800E00020406830B10AB148687E
:1053D00000E000204068046800E00024012A02D9AF
:1053E00048680C3000E00020406838B1012A02D93A
:1053F00048680C3000E0002040680068022A8046BF
:1054000002D94868183000E00020406840B1022A04
:1054100002D94868183000E000204068056800E0C4
:105420000025022A0BD9486810F1180F07D030F870
:10543000181F012903D9406808B1466800E000261A
:1054400004F10800FFF776FF0246E0684368A069B0
:105450008768D8F818008468A8692EB3D0F8089037
:10546000B069866800201BE00146C51815E000BF42
:10547000A1EB000C06EB8C0809EB8C0C98ED000AF4
:1054800007EB81089CED001AD8ED000A04EB810CB3
:10549000491C00EE810A8CED000A8D42E8D82846AE
:1054A0009042E1D3BDE8F0878568002016E0014610
:1054B000C61810E007EB810C9CED000AA1EB000C74
:1054C00005EB8C0CDCED000A04EB810C491C20EE92
:1054D000200A8CED000A8E42ECD830469042E6D38A
:1054E000E0E700002DE9F04F04468069ADB0018887
:1054F00009B1426800E00022526832B109B1426845
:1055000000E000225268136800E00023012902D95C
:1055100042680C3200E00022526842B1012902D9EF
:1055200042680C3200E000225268166800E0002653
:10553000022902D94268183200E0002252683AB1CA
:10554000022902D94268183200E00022526812682B
:10555000022990460BD9426812F1180F07D032F891
:10556000185F012D03D9526812B1526800E0002281
:10557000022902D94568183500E000256D6845B15B
:10558000022902D94068183000E000204068806895
:1055900000E000200090D86841681A91F1684D68D9
:1055A0001395CD682695D1F80890C168239180683D
:1055B0001E90208D80B21690A08D80B22590E06B59
:1055C000018889B20791808880B22990208E80B2AC
:1055D0002890A08E80B22790D8F80C00D0E901ABBB
:1055E000E0691D90986980682490D8F81800806858
:1055F000069012B19069806800E000202290B069A6
:10560000216A87680098FFF7B8FE05461990009850
:10561000FFF7BCFE21900098FFF7A7FE2B90606A71
:1056200000B954482799ABF101021C90491E02FBB6
:1056300001B02899AAF101022A90491E02FB01A09B
:105640001B90D8F8183000201968C1F3C61CC1F3AC
:1056500041522CFA02FCC1F34341042901D008292C
:105660002DD1DA685AB3A1690C88032C04D9D1F87A
:10567000048008F1240801E04FF00008D8F8048005
:10568000B8F1000F0BD0032C02D94868243000E099
:1056900000204068006810B18169896800E000213D
:1056A00080690C461A994068CDE9001099686346F4
:1056B0002046FFF7A7FB211E01D0084600E0069810
:1056C0001F900798C0F1000800204CE02998414243
:1056D000C8F10000002800DC0020864623982A9AA2
:1056E000A0EB0800904200D31046279A289B12B2E4
:1056F0001BB21B9CCDE90E32CDE90C84CDE90A0129
:105700001D9BCDE9083E1698CDE9049ACDE906B077
:1057100022981E9B139A1A998DE80F003946002093
:105720001F9B249AFFF734FA002413E08760314668
:10573000DDF870C02B460846139AE047139807EB34
:105740008007219805441998291A2B98814200DB7B
:10575000199D641CB0694C45E8D3C16881602599E6
:1057600020988844401C269920908842AED32DB0C2
:1057700000F002B8DB59000830BCBDE8C08F000063
:105780002DE9F04F2DED028B87B08069018809B1BA
:10579000426800E00022526832B109B1426800E07C
:1057A00000225268156800E00025012902D94268EC
:1057B0000C3200E00022526842B1012902D942684D
:1057C0000C3200E000225268146800E00024022934
:1057D00002D94268183200E0002252683AB1022928
:1057E00002D94268183200E0002252681268022989
:1057F00093460BD9426812F1180F07D032F8183FC0
:10580000012B03D9526812B1526800E000220392C2
:10581000EA68E3684FF0000AD2F804905A680192EF
:10582000D3E902235A430092DBF818301A68C2F316
:10583000C616C2F34157FE400496032902D94668B2
:10584000243600E00026766856B1032902D9406864
:10585000243000E000204068006808B1866900E05C
:105860000026C2F34340042801D008280ED1DF6887
:105870005EB1D6E90001FEF757FED6F80CA002464D
:1058800039465046FAF7D2FC00E0BA46DBF814007D
:1058900000999FED3C8AD0F80480A0698468A869CB
:1058A00080680290019804EB8007484304EB800075
:1058B00005905EE0DBF818008668039810B18069F7
:1058C000856800E00025BAF1000F33D00498042861
:1058D00015D02CE015B1B5EC010A01E0B0EE480A94
:1058E0008DED060ACDF800905246314606A8029B7F
:1058F000FDF71AFE9DED060A4644A4EC010ABC42DF
:10590000E8D32FE015B1B5EC010A01E0B0EE480A8A
:105910008DED060ACDF800905246314606A8029B4E
:10592000FDF798FE9DED060A4644A4EC010ABC4230
:10593000E8D317E00298069012E015B1B5EC010A21
:1059400001E0B0EE480A8DED000A4B46314668464C
:10595000069AFDF707FD9DED000A4644A4EC010AF6
:10596000BC42EAD3029901EB89000290019807EB4F
:105970008007059884429DD307B0BDEC028B00F0F0
:1059800003B800000000000030BCBDE8C08F30B498
:10599000816902460B880BB1486800E0002040682E
:1059A00028B10BB1486800E0002040680068012B76
:1059B00002D94C680C3400E00024646844B1012B27
:1059C00002D949680C3100E000214968096800E00B
:1059D000002130BC1C3200F05FB870470146C0683F
:1059E0004A698969C068D26809685043044A11400D
:1059F000A1F58022C03A01D1C01DC0087047000047
:105A0000FFFF7F012DE9F0410B3020F00706104D1C
:105A100019E02068B04215D3B0420AD9871B201D77
:105A2000D4F80480FAF702FCA019C0E900782860D5
:105A300004E060682860201DFAF7F8FB201D26604E
:105A4000BDE8F081251D2C68002CE2D10020F7E78D
:105A50000800002030B58B6984696FF0030000EB0B
:105A600082019D68A26868181144DFED0A0A0CE003
:105A700090ED000AB5EEC00AF1EE10FA01D8B0EED2
:105A8000600A81ED000A001F091F9A688242EFD95F
:105A900030BD0000000000002DE9F04F584B93B0DE
:105AA0001B680A9354684369246853F824300293AE
:105AB00054684369646853F8243003935468436915
:105AC000A46853F82430049354684369E46853F895
:105AD0002430059304690523B3EB142F0CD8156803
